{
  "contractName": "Bank",
  "abi": [
    {
      "anonymous": false,
      "inputs": [
        {
          "indexed": true,
          "internalType": "uint256",
          "name": "accountNumber",
          "type": "uint256"
        },
        {
          "indexed": false,
          "internalType": "string",
          "name": "name",
          "type": "string"
        }
      ],
      "name": "AccountCreated",
      "type": "event"
    },
    {
      "anonymous": false,
      "inputs": [
        {
          "indexed": true,
          "internalType": "uint256",
          "name": "accountNumber",
          "type": "uint256"
        },
        {
          "indexed": false,
          "internalType": "uint256",
          "name": "amount",
          "type": "uint256"
        }
      ],
      "name": "Deposited",
      "type": "event"
    },
    {
      "anonymous": false,
      "inputs": [
        {
          "indexed": true,
          "internalType": "uint256",
          "name": "accountNumber",
          "type": "uint256"
        },
        {
          "indexed": false,
          "internalType": "uint256",
          "name": "amount",
          "type": "uint256"
        }
      ],
      "name": "Withdrawn",
      "type": "event"
    },
    {
      "inputs": [
        {
          "internalType": "uint256",
          "name": "",
          "type": "uint256"
        }
      ],
      "name": "accounts",
      "outputs": [
        {
          "internalType": "string",
          "name": "name",
          "type": "string"
        },
        {
          "internalType": "uint256",
          "name": "accountNumber",
          "type": "uint256"
        },
        {
          "internalType": "uint256",
          "name": "balance",
          "type": "uint256"
        },
        {
          "internalType": "uint256",
          "name": "pin",
          "type": "uint256"
        },
        {
          "internalType": "bool",
          "name": "exists",
          "type": "bool"
        }
      ],
      "stateMutability": "view",
      "type": "function",
      "constant": true
    },
    {
      "inputs": [
        {
          "internalType": "string",
          "name": "_name",
          "type": "string"
        },
        {
          "internalType": "uint256",
          "name": "_accountNumber",
          "type": "uint256"
        },
        {
          "internalType": "uint256",
          "name": "_initialDeposit",
          "type": "uint256"
        },
        {
          "internalType": "uint256",
          "name": "_pin",
          "type": "uint256"
        }
      ],
      "name": "createAccount",
      "outputs": [],
      "stateMutability": "nonpayable",
      "type": "function"
    },
    {
      "inputs": [
        {
          "internalType": "uint256",
          "name": "_accountNumber",
          "type": "uint256"
        },
        {
          "internalType": "uint256",
          "name": "_amount",
          "type": "uint256"
        }
      ],
      "name": "deposit",
      "outputs": [],
      "stateMutability": "nonpayable",
      "type": "function"
    },
    {
      "inputs": [
        {
          "internalType": "uint256",
          "name": "_accountNumber",
          "type": "uint256"
        },
        {
          "internalType": "uint256",
          "name": "_amount",
          "type": "uint256"
        },
        {
          "internalType": "uint256",
          "name": "_pin",
          "type": "uint256"
        }
      ],
      "name": "withdraw",
      "outputs": [],
      "stateMutability": "nonpayable",
      "type": "function"
    },
    {
      "inputs": [
        {
          "internalType": "uint256",
          "name": "_accountNumber",
          "type": "uint256"
        },
        {
          "internalType": "uint256",
          "name": "_pin",
          "type": "uint256"
        }
      ],
      "name": "checkBalance",
      "outputs": [
        {
          "internalType": "uint256",
          "name": "",
          "type": "uint256"
        }
      ],
      "stateMutability": "view",
      "type": "function",
      "constant": true
    }
  ],
  "bytecode": "0x608060405234801561001057600080fd5b50610d70806100206000396000f3fe608060405234801561001057600080fd5b50600436106100575760003560e01c80632a1d36c41461005c578063a41fe49f14610078578063b471f40a14610094578063e2bbb158146100c4578063f2a40db8146100e0575b600080fd5b61007660048036038101906100719190610757565b610114565b005b610092600480360381019061008d9190610837565b61024f565b005b6100ae60048036038101906100a991906107fb565b6103c9565b6040516100bb9190610ad9565b60405180910390f35b6100de60048036038101906100d991906107fb565b6104a2565b005b6100fa60048036038101906100f591906107d2565b61056c565b60405161010b9594939291906109ff565b60405180910390f35b60008084815260200190815260200160002060040160009054906101000a900460ff1615610177576040517f08c379a000000000000000000000000000000000000000000000000000000000815260040161016e90610ab9565b60405180910390fd5b6040518060a001604052808581526020018481526020018381526020018281526020016001151581525060008085815260200190815260200160002060008201518160000190805190602001906101cf929190610637565b5060208201518160010155604082015181600201556060820151816003015560808201518160040160006101000a81548160ff021916908315150217905550905050827f4406213a6636a645b4f8ae705de381db1cd81c92d6a1b1b7bebefc6f41598d4a8560405161024191906109dd565b60405180910390a250505050565b60008084815260200190815260200160002060040160009054906101000a900460ff166102b1576040517f08c379a00000000000000000000000000000000000000000000000000000000081526004016102a890610a79565b60405180910390fd5b806000808581526020019081526020016000206003015414610308576040517f08c379a00000000000000000000000000000000000000000000000000000000081526004016102ff90610a99565b60405180910390fd5b81600080858152602001908152602001600020600201541015610360576040517f08c379a000000000000000000000000000000000000000000000000000000000815260040161035790610a59565b60405180910390fd5b8160008085815260200190815260200160002060020160008282546103859190610bc7565b92505081905550827f0c875c8d391179c5cf7ad8303d268efd50b8beb78b671f85cd54bfb91eb8ef40836040516103bc9190610ad9565b60405180910390a2505050565b600080600084815260200190815260200160002060040160009054906101000a900460ff1661042d576040517f08c379a000000000000000000000000000000000000000000000000000000000815260040161042490610a79565b60405180910390fd5b816000808581526020019081526020016000206003015414610484576040517f08c379a000000000000000000000000000000000000000000000000000000000815260040161047b90610a99565b60405180910390fd5b60008084815260200190815260200160002060020154905092915050565b60008083815260200190815260200160002060040160009054906101000a900460ff16610504576040517f08c379a00000000000000000000000000000000000000000000000000000000081526004016104fb90610a79565b60405180910390fd5b8060008084815260200190815260200160002060020160008282546105299190610b71565b92505081905550817f06da3309189fa49284f335d2c2bcb4cb0b8ad2a59ad92a9bdebeeb8f1ceba511826040516105609190610ad9565b60405180910390a25050565b600060205280600052604060002060009150905080600001805461058f90610c53565b80601f01602080910402602001604051908101604052809291908181526020018280546105bb90610c53565b80156106085780601f106105dd57610100808354040283529160200191610608565b820191906000526020600020905b8154815290600101906020018083116105eb57829003601f168201915b5050505050908060010154908060020154908060030154908060040160009054906101000a900460ff16905085565b82805461064390610c53565b90600052602060002090601f01602090048101928261066557600085556106ac565b82601f1061067e57805160ff19168380011785556106ac565b828001600101855582156106ac579182015b828111156106ab578251825591602001919060010190610690565b5b5090506106b991906106bd565b5090565b5b808211156106d65760008160009055506001016106be565b5090565b60006106ed6106e884610b25565b610af4565b90508281526020810184848401111561070557600080fd5b610710848285610c11565b509392505050565b600082601f83011261072957600080fd5b81356107398482602086016106da565b91505092915050565b60008135905061075181610d23565b92915050565b6000806000806080858703121561076d57600080fd5b600085013567ffffffffffffffff81111561078757600080fd5b61079387828801610718565b94505060206107a487828801610742565b93505060406107b587828801610742565b92505060606107c687828801610742565b91505092959194509250565b6000602082840312156107e457600080fd5b60006107f284828501610742565b91505092915050565b6000806040838503121561080e57600080fd5b600061081c85828601610742565b925050602061082d85828601610742565b9150509250929050565b60008060006060848603121561084c57600080fd5b600061085a86828701610742565b935050602061086b86828701610742565b925050604061087c86828701610742565b9150509250925092565b61088f81610bfb565b82525050565b60006108a082610b55565b6108aa8185610b60565b93506108ba818560208601610c20565b6108c381610d12565b840191505092915050565b60006108db601283610b60565b91507f496e73756666696369656e742066756e647300000000000000000000000000006000830152602082019050919050565b600061091b601683610b60565b91507f4163636f756e7420646f6573206e6f74206578697374000000000000000000006000830152602082019050919050565b600061095b600d83610b60565b91507f496e636f72726563742050494e000000000000000000000000000000000000006000830152602082019050919050565b600061099b601683610b60565b91507f4163636f756e7420616c726561647920657869737473000000000000000000006000830152602082019050919050565b6109d781610c07565b82525050565b600060208201905081810360008301526109f78184610895565b905092915050565b600060a0820190508181036000830152610a198188610895565b9050610a2860208301876109ce565b610a3560408301866109ce565b610a4260608301856109ce565b610a4f6080830184610886565b9695505050505050565b60006020820190508181036000830152610a72816108ce565b9050919050565b60006020820190508181036000830152610a928161090e565b9050919050565b60006020820190508181036000830152610ab28161094e565b9050919050565b60006020820190508181036000830152610ad28161098e565b9050919050565b6000602082019050610aee60008301846109ce565b92915050565b6000604051905081810181811067ffffffffffffffff82111715610b1b57610b1a610ce3565b5b8060405250919050565b600067ffffffffffffffff821115610b4057610b3f610ce3565b5b601f19601f8301169050602081019050919050565b600081519050919050565b600082825260208201905092915050565b6000610b7c82610c07565b9150610b8783610c07565b9250827fffffffffffffffffffffffffffffffffffffffffffffffffffffffffffffffff03821115610bbc57610bbb610c85565b5b828201905092915050565b6000610bd282610c07565b9150610bdd83610c07565b925082821015610bf057610bef610c85565b5b828203905092915050565b60008115159050919050565b6000819050919050565b82818337600083830152505050565b60005b83811015610c3e578082015181840152602081019050610c23565b83811115610c4d576000848401525b50505050565b60006002820490506001821680610c6b57607f821691505b60208210811415610c7f57610c7e610cb4565b5b50919050565b7f4e487b7100000000000000000000000000000000000000000000000000000000600052601160045260246000fd5b7f4e487b7100000000000000000000000000000000000000000000000000000000600052602260045260246000fd5b7f4e487b7100000000000000000000000000000000000000000000000000000000600052604160045260246000fd5b6000601f19601f8301169050919050565b610d2c81610c07565b8114610d3757600080fd5b5056fea264697066735822122068c0c8514dfe3f94a38448358103500f0b2298b55638a993ca863a5f5b93bc2d64736f6c63430008000033",
  "immutableReferences": {},
  "source": "// SPDX-License-Identifier: MIT\npragma solidity ^0.8.0;\n\ncontract Bank {\n    // Struct to store account info\n    struct Account {\n        string name;\n        uint256 accountNumber;\n        uint256 balance;\n        uint256 pin;\n        bool exists;\n    }\n\n    // Mapping to store user account by account number\n    mapping(uint256 => Account) public accounts;\n\n    // Event for account creation\n    event AccountCreated(uint256 indexed accountNumber, string name);\n\n    // Event for deposit transactions\n    event Deposited(uint256 indexed accountNumber, uint256 amount);\n\n    // Event for withdrawal transactions\n    event Withdrawn(uint256 indexed accountNumber, uint256 amount);\n\n    // Create a new account with name, account number, initial balance, and pin\n    function createAccount(\n        string memory _name,\n        uint256 _accountNumber,\n        uint256 _initialDeposit,\n        uint256 _pin\n    ) public {\n        // Ensure the account doesn't already exist\n        require(!accounts[_accountNumber].exists, \"Account already exists\");\n\n        // Create the account\n        accounts[_accountNumber] = Account({\n            name: _name,\n            accountNumber: _accountNumber,\n            balance: _initialDeposit,\n            pin: _pin,\n            exists: true\n        });\n\n        // Emit an event for account creation\n        emit AccountCreated(_accountNumber, _name);\n    }\n\n    // Function to deposit funds into an account\n    function deposit(uint256 _accountNumber, uint256 _amount) public {\n        // Ensure the account exists\n        require(accounts[_accountNumber].exists, \"Account does not exist\");\n\n        // Update the balance of the account\n        accounts[_accountNumber].balance += _amount;\n\n        // Emit an event for the deposit\n        emit Deposited(_accountNumber, _amount);\n    }\n\n    // Function to withdraw funds from an account (requires correct PIN)\n    function withdraw(uint256 _accountNumber, uint256 _amount, uint256 _pin) public {\n        // Ensure the account exists\n        require(accounts[_accountNumber].exists, \"Account does not exist\");\n\n        // Ensure the PIN matches\n        require(accounts[_accountNumber].pin == _pin, \"Incorrect PIN\");\n\n        // Ensure there are sufficient funds in the account\n        require(accounts[_accountNumber].balance >= _amount, \"Insufficient funds\");\n\n        // Update the balance after withdrawal\n        accounts[_accountNumber].balance -= _amount;\n\n        // Emit an event for the withdrawal\n        emit Withdrawn(_accountNumber, _amount);\n    }\n\n    // Function to check account balance\n    function checkBalance(uint256 _accountNumber , uint _pin) public view returns (uint256) {\n        // Ensure the account exists\n        require(accounts[_accountNumber].exists, \"Account does not exist\");\n\n        //ensure the provided pin matches the stored pin\n        require(accounts[_accountNumber].pin == _pin, \"Incorrect PIN\");\n\n        // Return the balance of the account\n        return accounts[_accountNumber].balance;\n    }\n}\n",
  "sourcePath": "C:\\Users\\skspa\\Desktop\\Dapp\\contracts\\bank.sol",
  "compiler": {
    "name": "solc",
    "version": "0.8.0+commit.c7dfd78e.Emscripten.clang"
  },
  "schemaVersion": "3.4.16",
  "updatedAt": "2025-02-02T11:39:47.275Z",
  "networkType": "ethereum",
  "devdoc": {
    "kind": "dev",
    "methods": {},
    "version": 1
  },
  "userdoc": {
    "kind": "user",
    "methods": {},
    "version": 1
  }
}